{
	"MyContract.sol": {
		"MyContract": {
			"abi": [
				{
					"constant": false,
					"inputs": [],
					"name": "activate",
					"outputs": [],
					"payable": false,
					"stateMutability": "nonpayable",
					"type": "function"
				},
				{
					"constant": true,
					"inputs": [],
					"name": "isActive",
					"outputs": [
						{
							"name": "",
							"type": "bool"
						}
					],
					"payable": false,
					"stateMutability": "view",
					"type": "function"
				},
				{
					"constant": true,
					"inputs": [],
					"name": "state",
					"outputs": [
						{
							"name": "",
							"type": "uint8"
						}
					],
					"payable": false,
					"stateMutability": "view",
					"type": "function"
				},
				{
					"inputs": [],
					"payable": false,
					"stateMutability": "nonpayable",
					"type": "constructor"
				}
			],
			"devdoc": {
				"methods": {}
			},
			"evm": {
				"assembly": "    /* \"MyContract.sol\":23:852  contract MyContract {... */\n  mstore(0x40, 0x80)\n    /* \"MyContract.sol\":627:685  constructor () public {... */\n  callvalue\n    /* \"--CODEGEN--\":8:17   */\n  dup1\n    /* \"--CODEGEN--\":5:7   */\n  iszero\n  tag_1\n  jumpi\n    /* \"--CODEGEN--\":30:31   */\n  0x0\n    /* \"--CODEGEN--\":27:28   */\n  dup1\n    /* \"--CODEGEN--\":20:32   */\n  revert\n    /* \"--CODEGEN--\":5:7   */\ntag_1:\n    /* \"MyContract.sol\":627:685  constructor () public {... */\n  pop\n    /* \"MyContract.sol\":666:679  State.Waiting */\n  0x0\n    /* \"MyContract.sol\":658:663  state */\n  dup1\n  0x0\n    /* \"MyContract.sol\":658:679  state = State.Waiting */\n  0x100\n  exp\n  dup2\n  sload\n  dup2\n  0xff\n  mul\n  not\n  and\n  swap1\n  dup4\n  0x2\n  dup2\n  gt\n  iszero\n  tag_4\n  jumpi\n  invalid\ntag_4:\n  mul\n  or\n  swap1\n  sstore\n  pop\n    /* \"MyContract.sol\":23:852  contract MyContract {... */\n  dataSize(sub_0)\n  dup1\n  dataOffset(sub_0)\n  0x0\n  codecopy\n  0x0\n  return\nstop\n\nsub_0: assembly {\n        /* \"MyContract.sol\":23:852  contract MyContract {... */\n      mstore(0x40, 0x80)\n      jumpi(tag_1, lt(calldatasize, 0x4))\n      calldataload(0x0)\n      0x100000000000000000000000000000000000000000000000000000000\n      swap1\n      div\n      dup1\n      0xf15f4c0\n      eq\n      tag_2\n      jumpi\n      dup1\n      0x22f3e2d4\n      eq\n      tag_3\n      jumpi\n      dup1\n      0xc19d93fb\n      eq\n      tag_4\n      jumpi\n    tag_1:\n      0x0\n      dup1\n      revert\n        /* \"MyContract.sol\":690:753  function activate () public {... */\n    tag_2:\n      callvalue\n        /* \"--CODEGEN--\":8:17   */\n      dup1\n        /* \"--CODEGEN--\":5:7   */\n      iszero\n      tag_5\n      jumpi\n        /* \"--CODEGEN--\":30:31   */\n      0x0\n        /* \"--CODEGEN--\":27:28   */\n      dup1\n        /* \"--CODEGEN--\":20:32   */\n      revert\n        /* \"--CODEGEN--\":5:7   */\n    tag_5:\n        /* \"MyContract.sol\":690:753  function activate () public {... */\n      pop\n      tag_6\n      tag_7\n      jump\t// in\n    tag_6:\n      stop\n        /* \"MyContract.sol\":757:846  function isActive () public view returns(bool){... */\n    tag_3:\n      callvalue\n        /* \"--CODEGEN--\":8:17   */\n      dup1\n        /* \"--CODEGEN--\":5:7   */\n      iszero\n      tag_8\n      jumpi\n        /* \"--CODEGEN--\":30:31   */\n      0x0\n        /* \"--CODEGEN--\":27:28   */\n      dup1\n        /* \"--CODEGEN--\":20:32   */\n      revert\n        /* \"--CODEGEN--\":5:7   */\n    tag_8:\n        /* \"MyContract.sol\":757:846  function isActive () public view returns(bool){... */\n      pop\n      tag_9\n      tag_10\n      jump\t// in\n    tag_9:\n      mload(0x40)\n      dup1\n      dup3\n      iszero\n      iszero\n      iszero\n      iszero\n      dup2\n      mstore\n      0x20\n      add\n      swap2\n      pop\n      pop\n      mload(0x40)\n      dup1\n      swap2\n      sub\n      swap1\n      return\n        /* \"MyContract.sol\":603:621  State public state */\n    tag_4:\n      callvalue\n        /* \"--CODEGEN--\":8:17   */\n      dup1\n        /* \"--CODEGEN--\":5:7   */\n      iszero\n      tag_11\n      jumpi\n        /* \"--CODEGEN--\":30:31   */\n      0x0\n        /* \"--CODEGEN--\":27:28   */\n      dup1\n        /* \"--CODEGEN--\":20:32   */\n      revert\n        /* \"--CODEGEN--\":5:7   */\n    tag_11:\n        /* \"MyContract.sol\":603:621  State public state */\n      pop\n      tag_12\n      tag_13\n      jump\t// in\n    tag_12:\n      mload(0x40)\n      dup1\n      dup3\n      0x2\n      dup2\n      gt\n      iszero\n      tag_14\n      jumpi\n      invalid\n    tag_14:\n      0xff\n      and\n      dup2\n      mstore\n      0x20\n      add\n      swap2\n      pop\n      pop\n      mload(0x40)\n      dup1\n      swap2\n      sub\n      swap1\n      return\n        /* \"MyContract.sol\":690:753  function activate () public {... */\n    tag_7:\n        /* \"MyContract.sol\":735:747  State.Active */\n      0x2\n        /* \"MyContract.sol\":727:732  state */\n      0x0\n      dup1\n        /* \"MyContract.sol\":727:747  state = State.Active */\n      0x100\n      exp\n      dup2\n      sload\n      dup2\n      0xff\n      mul\n      not\n      and\n      swap1\n      dup4\n      0x2\n      dup2\n      gt\n      iszero\n      tag_16\n      jumpi\n      invalid\n    tag_16:\n      mul\n      or\n      swap1\n      sstore\n      pop\n        /* \"MyContract.sol\":690:753  function activate () public {... */\n      jump\t// out\n        /* \"MyContract.sol\":757:846  function isActive () public view returns(bool){... */\n    tag_10:\n        /* \"MyContract.sol\":798:802  bool */\n      0x0\n        /* \"MyContract.sol\":828:840  State.Active */\n      0x2\n        /* \"MyContract.sol\":819:840  state == State.Active */\n      dup1\n      dup2\n      gt\n      iszero\n      tag_18\n      jumpi\n      invalid\n    tag_18:\n        /* \"MyContract.sol\":819:824  state */\n      0x0\n      dup1\n      swap1\n      sload\n      swap1\n      0x100\n      exp\n      swap1\n      div\n      0xff\n      and\n        /* \"MyContract.sol\":819:840  state == State.Active */\n      0x2\n      dup2\n      gt\n      iszero\n      tag_19\n      jumpi\n      invalid\n    tag_19:\n      eq\n        /* \"MyContract.sol\":812:840  return state == State.Active */\n      swap1\n      pop\n        /* \"MyContract.sol\":757:846  function isActive () public view returns(bool){... */\n      swap1\n      jump\t// out\n        /* \"MyContract.sol\":603:621  State public state */\n    tag_13:\n      0x0\n      dup1\n      swap1\n      sload\n      swap1\n      0x100\n      exp\n      swap1\n      div\n      0xff\n      and\n      dup2\n      jump\t// out\n\n    auxdata: 0xa165627a7a723058207ee5c5e64b2f09221487a97198278b7778f99a93b46eee1caf6c08f40d53b0380029\n}\n",
				"bytecode": {
					"linkReferences": {},
					"object": "608060405234801561001057600080fd5b5060008060006101000a81548160ff0219169083600281111561002f57fe5b0217905550610166806100436000396000f3fe608060405260043610610051576000357c0100000000000000000000000000000000000000000000000000000000900480630f15f4c01461005657806322f3e2d41461006d578063c19d93fb1461009c575b600080fd5b34801561006257600080fd5b5061006b6100d5565b005b34801561007957600080fd5b506100826100fa565b604051808215151515815260200191505060405180910390f35b3480156100a857600080fd5b506100b1610128565b604051808260028111156100c157fe5b60ff16815260200191505060405180910390f35b60026000806101000a81548160ff021916908360028111156100f357fe5b0217905550565b600060028081111561010857fe5b6000809054906101000a900460ff16600281111561012257fe5b14905090565b6000809054906101000a900460ff168156fea165627a7a723058207ee5c5e64b2f09221487a97198278b7778f99a93b46eee1caf6c08f40d53b0380029",
					"opcodes": "PUSH1 0x80 PUSH1 0x40 MSTORE CALLVALUE DUP1 ISZERO PUSH2 0x10 JUMPI PUSH1 0x0 DUP1 REVERT JUMPDEST POP PUSH1 0x0 DUP1 PUSH1 0x0 PUSH2 0x100 EXP DUP2 SLOAD DUP2 PUSH1 0xFF MUL NOT AND SWAP1 DUP4 PUSH1 0x2 DUP2 GT ISZERO PUSH2 0x2F JUMPI INVALID JUMPDEST MUL OR SWAP1 SSTORE POP PUSH2 0x166 DUP1 PUSH2 0x43 PUSH1 0x0 CODECOPY PUSH1 0x0 RETURN INVALID PUSH1 0x80 PUSH1 0x40 MSTORE PUSH1 0x4 CALLDATASIZE LT PUSH2 0x51 JUMPI PUSH1 0x0 CALLDATALOAD PUSH29 0x100000000000000000000000000000000000000000000000000000000 SWAP1 DIV DUP1 PUSH4 0xF15F4C0 EQ PUSH2 0x56 JUMPI DUP1 PUSH4 0x22F3E2D4 EQ PUSH2 0x6D JUMPI DUP1 PUSH4 0xC19D93FB EQ PUSH2 0x9C JUMPI JUMPDEST PUSH1 0x0 DUP1 REVERT JUMPDEST CALLVALUE DUP1 ISZERO PUSH2 0x62 JUMPI PUSH1 0x0 DUP1 REVERT JUMPDEST POP PUSH2 0x6B PUSH2 0xD5 JUMP JUMPDEST STOP JUMPDEST CALLVALUE DUP1 ISZERO PUSH2 0x79 JUMPI PUSH1 0x0 DUP1 REVERT JUMPDEST POP PUSH2 0x82 PUSH2 0xFA JUMP JUMPDEST PUSH1 0x40 MLOAD DUP1 DUP3 ISZERO ISZERO ISZERO ISZERO DUP2 MSTORE PUSH1 0x20 ADD SWAP2 POP POP PUSH1 0x40 MLOAD DUP1 SWAP2 SUB SWAP1 RETURN JUMPDEST CALLVALUE DUP1 ISZERO PUSH2 0xA8 JUMPI PUSH1 0x0 DUP1 REVERT JUMPDEST POP PUSH2 0xB1 PUSH2 0x128 JUMP JUMPDEST PUSH1 0x40 MLOAD DUP1 DUP3 PUSH1 0x2 DUP2 GT ISZERO PUSH2 0xC1 JUMPI INVALID JUMPDEST PUSH1 0xFF AND DUP2 MSTORE PUSH1 0x20 ADD SWAP2 POP POP PUSH1 0x40 MLOAD DUP1 SWAP2 SUB SWAP1 RETURN JUMPDEST PUSH1 0x2 PUSH1 0x0 DUP1 PUSH2 0x100 EXP DUP2 SLOAD DUP2 PUSH1 0xFF MUL NOT AND SWAP1 DUP4 PUSH1 0x2 DUP2 GT ISZERO PUSH2 0xF3 JUMPI INVALID JUMPDEST MUL OR SWAP1 SSTORE POP JUMP JUMPDEST PUSH1 0x0 PUSH1 0x2 DUP1 DUP2 GT ISZERO PUSH2 0x108 JUMPI INVALID JUMPDEST PUSH1 0x0 DUP1 SWAP1 SLOAD SWAP1 PUSH2 0x100 EXP SWAP1 DIV PUSH1 0xFF AND PUSH1 0x2 DUP2 GT ISZERO PUSH2 0x122 JUMPI INVALID JUMPDEST EQ SWAP1 POP SWAP1 JUMP JUMPDEST PUSH1 0x0 DUP1 SWAP1 SLOAD SWAP1 PUSH2 0x100 EXP SWAP1 DIV PUSH1 0xFF AND DUP2 JUMP INVALID LOG1 PUSH6 0x627A7A723058 KECCAK256 PUSH31 0xE5C5E64B2F09221487A97198278B7778F99A93B46EEE1CAF6C08F40D53B038 STOP 0x29 "
				},
				"gasEstimates": {
					"creation": {
						"codeDepositCost": "71600",
						"executionCost": "20410",
						"totalCost": "92010"
					},
					"external": {
						"activate()": "20414",
						"isActive()": "524",
						"state()": "500"
					}
				},
				"methodIdentifiers": {
					"activate()": "0f15f4c0",
					"isActive()": "22f3e2d4",
					"state()": "c19d93fb"
				}
			},
			"userdoc": {
				"methods": {}
			}
		}
	}
}