{
	"MyContract.sol": {
		"MyContract": {
			"abi": [
				{
					"constant": true,
					"inputs": [],
					"name": "value",
					"outputs": [
						{
							"name": "",
							"type": "uint256"
						}
					],
					"payable": false,
					"stateMutability": "view",
					"type": "function"
				},
				{
					"constant": false,
					"inputs": [
						{
							"name": "_value1",
							"type": "uint256"
						},
						{
							"name": "_value2",
							"type": "uint256"
						}
					],
					"name": "calculate",
					"outputs": [],
					"payable": false,
					"stateMutability": "nonpayable",
					"type": "function"
				}
			],
			"devdoc": {
				"methods": {}
			},
			"evm": {
				"assembly": "    /* \"MyContract.sol\":237:464  contract MyContract {... */\n  mstore(0x40, 0x80)\n  callvalue\n    /* \"--CODEGEN--\":8:17   */\n  dup1\n    /* \"--CODEGEN--\":5:7   */\n  iszero\n  tag_1\n  jumpi\n    /* \"--CODEGEN--\":30:31   */\n  0x0\n    /* \"--CODEGEN--\":27:28   */\n  dup1\n    /* \"--CODEGEN--\":20:32   */\n  revert\n    /* \"--CODEGEN--\":5:7   */\ntag_1:\n    /* \"MyContract.sol\":237:464  contract MyContract {... */\n  pop\n  dataSize(sub_0)\n  dup1\n  dataOffset(sub_0)\n  0x0\n  codecopy\n  0x0\n  return\nstop\n\nsub_0: assembly {\n        /* \"MyContract.sol\":237:464  contract MyContract {... */\n      mstore(0x40, 0x80)\n      jumpi(tag_1, lt(calldatasize, 0x4))\n      calldataload(0x0)\n      0x100000000000000000000000000000000000000000000000000000000\n      swap1\n      div\n      dup1\n      0x3fa4f245\n      eq\n      tag_2\n      jumpi\n      dup1\n      0x8dfa4363\n      eq\n      tag_3\n      jumpi\n    tag_1:\n      0x0\n      dup1\n      revert\n        /* \"MyContract.sol\":273:293  uint256 public value */\n    tag_2:\n      callvalue\n        /* \"--CODEGEN--\":8:17   */\n      dup1\n        /* \"--CODEGEN--\":5:7   */\n      iszero\n      tag_4\n      jumpi\n        /* \"--CODEGEN--\":30:31   */\n      0x0\n        /* \"--CODEGEN--\":27:28   */\n      dup1\n        /* \"--CODEGEN--\":20:32   */\n      revert\n        /* \"--CODEGEN--\":5:7   */\n    tag_4:\n        /* \"MyContract.sol\":273:293  uint256 public value */\n      pop\n      tag_5\n      tag_6\n      jump\t// in\n    tag_5:\n      mload(0x40)\n      dup1\n      dup3\n      dup2\n      mstore\n      0x20\n      add\n      swap2\n      pop\n      pop\n      mload(0x40)\n      dup1\n      swap2\n      sub\n      swap1\n      return\n        /* \"MyContract.sol\":300:462  function calculate(uint _value1, uint _value2) public {... */\n    tag_3:\n      callvalue\n        /* \"--CODEGEN--\":8:17   */\n      dup1\n        /* \"--CODEGEN--\":5:7   */\n      iszero\n      tag_7\n      jumpi\n        /* \"--CODEGEN--\":30:31   */\n      0x0\n        /* \"--CODEGEN--\":27:28   */\n      dup1\n        /* \"--CODEGEN--\":20:32   */\n      revert\n        /* \"--CODEGEN--\":5:7   */\n    tag_7:\n        /* \"MyContract.sol\":300:462  function calculate(uint _value1, uint _value2) public {... */\n      pop\n      tag_8\n      0x4\n      dup1\n      calldatasize\n      sub\n        /* \"--CODEGEN--\":13:15   */\n      0x40\n        /* \"--CODEGEN--\":8:11   */\n      dup2\n        /* \"--CODEGEN--\":5:16   */\n      lt\n        /* \"--CODEGEN--\":2:4   */\n      iszero\n      tag_9\n      jumpi\n        /* \"--CODEGEN--\":29:30   */\n      0x0\n        /* \"--CODEGEN--\":26:27   */\n      dup1\n        /* \"--CODEGEN--\":19:31   */\n      revert\n        /* \"--CODEGEN--\":2:4   */\n    tag_9:\n        /* \"MyContract.sol\":300:462  function calculate(uint _value1, uint _value2) public {... */\n      dup2\n      add\n      swap1\n      dup1\n      dup1\n      calldataload\n      swap1\n      0x20\n      add\n      swap1\n      swap3\n      swap2\n      swap1\n      dup1\n      calldataload\n      swap1\n      0x20\n      add\n      swap1\n      swap3\n      swap2\n      swap1\n      pop\n      pop\n      pop\n      tag_10\n      jump\t// in\n    tag_8:\n      stop\n        /* \"MyContract.sol\":273:293  uint256 public value */\n    tag_6:\n      sload(0x0)\n      dup2\n      jump\t// out\n        /* \"MyContract.sol\":300:462  function calculate(uint _value1, uint _value2) public {... */\n    tag_10:\n        /* \"MyContract.sol\":424:453  Math.divide(_value1, _value2) */\n      tag_12\n        /* \"MyContract.sol\":436:443  _value1 */\n      dup3\n        /* \"MyContract.sol\":445:452  _value2 */\n      dup3\n        /* \"MyContract.sol\":424:435  Math.divide */\n      tag_13\n        /* \"MyContract.sol\":424:453  Math.divide(_value1, _value2) */\n      jump\t// in\n    tag_12:\n        /* \"MyContract.sol\":416:421  value */\n      0x0\n        /* \"MyContract.sol\":416:453  value = Math.divide(_value1, _value2) */\n      dup2\n      swap1\n      sstore\n      pop\n        /* \"MyContract.sol\":300:462  function calculate(uint _value1, uint _value2) public {... */\n      pop\n      pop\n      jump\t// out\n        /* \"MyContract.sol\":42:198  function divide(uint256 a, uint256 b) internal pure returns (uint256) {... */\n    tag_13:\n        /* \"MyContract.sol\":103:110  uint256 */\n      0x0\n        /* \"MyContract.sol\":147:148  0 */\n      dup1\n        /* \"MyContract.sol\":145:146  b */\n      dup3\n        /* \"MyContract.sol\":145:148  b>0 */\n      gt\n        /* \"MyContract.sol\":136:149  require (b>0) */\n      iszero\n      iszero\n      tag_15\n      jumpi\n      0x0\n      dup1\n      revert\n    tag_15:\n        /* \"MyContract.sol\":159:165  uint c */\n      0x0\n        /* \"MyContract.sol\":172:173  b */\n      dup3\n        /* \"MyContract.sol\":168:169  a */\n      dup5\n        /* \"MyContract.sol\":168:173  a / b */\n      dup2\n      iszero\n      iszero\n      tag_16\n      jumpi\n      invalid\n    tag_16:\n      div\n        /* \"MyContract.sol\":159:173  uint c = a / b */\n      swap1\n      pop\n        /* \"MyContract.sol\":190:191  c */\n      dup1\n        /* \"MyContract.sol\":183:191  return c */\n      swap2\n      pop\n      pop\n        /* \"MyContract.sol\":42:198  function divide(uint256 a, uint256 b) internal pure returns (uint256) {... */\n      swap3\n      swap2\n      pop\n      pop\n      jump\t// out\n\n    auxdata: 0xa165627a7a723058202feffa21deba28346b7ce91702df8e7683c8e642e9822ea56d54b0fea07431630029\n}\n",
				"bytecode": {
					"linkReferences": {},
					"object": "608060405234801561001057600080fd5b5061011d806100206000396000f3fe6080604052600436106043576000357c0100000000000000000000000000000000000000000000000000000000900480633fa4f2451460485780638dfa4363146070575b600080fd5b348015605357600080fd5b50605a60b1565b6040518082815260200191505060405180910390f35b348015607b57600080fd5b5060af60048036036040811015609057600080fd5b81019080803590602001909291908035906020019092919050505060b7565b005b60005481565b60bf828260c9565b6000819055505050565b6000808211151560d857600080fd5b6000828481151560e457fe5b049050809150509291505056fea165627a7a723058202feffa21deba28346b7ce91702df8e7683c8e642e9822ea56d54b0fea07431630029",
					"opcodes": "PUSH1 0x80 PUSH1 0x40 MSTORE CALLVALUE DUP1 ISZERO PUSH2 0x10 JUMPI PUSH1 0x0 DUP1 REVERT JUMPDEST POP PUSH2 0x11D DUP1 PUSH2 0x20 PUSH1 0x0 CODECOPY PUSH1 0x0 RETURN INVALID PUSH1 0x80 PUSH1 0x40 MSTORE PUSH1 0x4 CALLDATASIZE LT PUSH1 0x43 JUMPI PUSH1 0x0 CALLDATALOAD PUSH29 0x100000000000000000000000000000000000000000000000000000000 SWAP1 DIV DUP1 PUSH4 0x3FA4F245 EQ PUSH1 0x48 JUMPI DUP1 PUSH4 0x8DFA4363 EQ PUSH1 0x70 JUMPI JUMPDEST PUSH1 0x0 DUP1 REVERT JUMPDEST CALLVALUE DUP1 ISZERO PUSH1 0x53 JUMPI PUSH1 0x0 DUP1 REVERT JUMPDEST POP PUSH1 0x5A PUSH1 0xB1 JUMP JUMPDEST PUSH1 0x40 MLOAD DUP1 DUP3 DUP2 MSTORE PUSH1 0x20 ADD SWAP2 POP POP PUSH1 0x40 MLOAD DUP1 SWAP2 SUB SWAP1 RETURN JUMPDEST CALLVALUE DUP1 ISZERO PUSH1 0x7B JUMPI PUSH1 0x0 DUP1 REVERT JUMPDEST POP PUSH1 0xAF PUSH1 0x4 DUP1 CALLDATASIZE SUB PUSH1 0x40 DUP2 LT ISZERO PUSH1 0x90 JUMPI PUSH1 0x0 DUP1 REVERT JUMPDEST DUP2 ADD SWAP1 DUP1 DUP1 CALLDATALOAD SWAP1 PUSH1 0x20 ADD SWAP1 SWAP3 SWAP2 SWAP1 DUP1 CALLDATALOAD SWAP1 PUSH1 0x20 ADD SWAP1 SWAP3 SWAP2 SWAP1 POP POP POP PUSH1 0xB7 JUMP JUMPDEST STOP JUMPDEST PUSH1 0x0 SLOAD DUP2 JUMP JUMPDEST PUSH1 0xBF DUP3 DUP3 PUSH1 0xC9 JUMP JUMPDEST PUSH1 0x0 DUP2 SWAP1 SSTORE POP POP POP JUMP JUMPDEST PUSH1 0x0 DUP1 DUP3 GT ISZERO ISZERO PUSH1 0xD8 JUMPI PUSH1 0x0 DUP1 REVERT JUMPDEST PUSH1 0x0 DUP3 DUP5 DUP2 ISZERO ISZERO PUSH1 0xE4 JUMPI INVALID JUMPDEST DIV SWAP1 POP DUP1 SWAP2 POP POP SWAP3 SWAP2 POP POP JUMP INVALID LOG1 PUSH6 0x627A7A723058 KECCAK256 0x2f 0xef STATICCALL 0x21 0xde 0xba 0x28 CALLVALUE PUSH12 0x7CE91702DF8E7683C8E642E9 DUP3 0x2e 0xa5 PUSH14 0x54B0FEA074316300290000000000 "
				},
				"gasEstimates": {
					"creation": {
						"codeDepositCost": "57000",
						"executionCost": "105",
						"totalCost": "57105"
					},
					"external": {
						"calculate(uint256,uint256)": "20397",
						"value()": "388"
					}
				},
				"methodIdentifiers": {
					"calculate(uint256,uint256)": "8dfa4363",
					"value()": "3fa4f245"
				}
			},
			"userdoc": {
				"methods": {}
			}
		}
	}
}