{
	"MyContract.sol": {
		"MyContract": {
			"abi": [
				{
					"constant": true,
					"inputs": [],
					"name": "value",
					"outputs": [
						{
							"name": "",
							"type": "uint256"
						}
					],
					"payable": false,
					"stateMutability": "view",
					"type": "function"
				},
				{
					"constant": false,
					"inputs": [
						{
							"name": "_value1",
							"type": "uint256"
						},
						{
							"name": "_value2",
							"type": "uint256"
						}
					],
					"name": "calculate",
					"outputs": [],
					"payable": false,
					"stateMutability": "nonpayable",
					"type": "function"
				}
			],
			"devdoc": {
				"methods": {}
			},
			"evm": {
				"assembly": "    /* \"MyContract.sol\":237:452  contract MyContract {... */\n  mstore(0x40, 0x80)\n  callvalue\n    /* \"--CODEGEN--\":8:17   */\n  dup1\n    /* \"--CODEGEN--\":5:7   */\n  iszero\n  tag_1\n  jumpi\n    /* \"--CODEGEN--\":30:31   */\n  0x0\n    /* \"--CODEGEN--\":27:28   */\n  dup1\n    /* \"--CODEGEN--\":20:32   */\n  revert\n    /* \"--CODEGEN--\":5:7   */\ntag_1:\n    /* \"MyContract.sol\":237:452  contract MyContract {... */\n  pop\n  dataSize(sub_0)\n  dup1\n  dataOffset(sub_0)\n  0x0\n  codecopy\n  0x0\n  return\nstop\n\nsub_0: assembly {\n        /* \"MyContract.sol\":237:452  contract MyContract {... */\n      mstore(0x40, 0x80)\n      jumpi(tag_1, lt(calldatasize, 0x4))\n      calldataload(0x0)\n      0x100000000000000000000000000000000000000000000000000000000\n      swap1\n      div\n      dup1\n      0x3fa4f245\n      eq\n      tag_2\n      jumpi\n      dup1\n      0x8dfa4363\n      eq\n      tag_3\n      jumpi\n    tag_1:\n      0x0\n      dup1\n      revert\n        /* \"MyContract.sol\":273:293  uint256 public value */\n    tag_2:\n      callvalue\n        /* \"--CODEGEN--\":8:17   */\n      dup1\n        /* \"--CODEGEN--\":5:7   */\n      iszero\n      tag_4\n      jumpi\n        /* \"--CODEGEN--\":30:31   */\n      0x0\n        /* \"--CODEGEN--\":27:28   */\n      dup1\n        /* \"--CODEGEN--\":20:32   */\n      revert\n        /* \"--CODEGEN--\":5:7   */\n    tag_4:\n        /* \"MyContract.sol\":273:293  uint256 public value */\n      pop\n      tag_5\n      tag_6\n      jump\t// in\n    tag_5:\n      mload(0x40)\n      dup1\n      dup3\n      dup2\n      mstore\n      0x20\n      add\n      swap2\n      pop\n      pop\n      mload(0x40)\n      dup1\n      swap2\n      sub\n      swap1\n      return\n        /* \"MyContract.sol\":300:450  function calculate(uint _value1, uint _value2) public {... */\n    tag_3:\n      callvalue\n        /* \"--CODEGEN--\":8:17   */\n      dup1\n        /* \"--CODEGEN--\":5:7   */\n      iszero\n      tag_7\n      jumpi\n        /* \"--CODEGEN--\":30:31   */\n      0x0\n        /* \"--CODEGEN--\":27:28   */\n      dup1\n        /* \"--CODEGEN--\":20:32   */\n      revert\n        /* \"--CODEGEN--\":5:7   */\n    tag_7:\n        /* \"MyContract.sol\":300:450  function calculate(uint _value1, uint _value2) public {... */\n      pop\n      tag_8\n      0x4\n      dup1\n      calldatasize\n      sub\n        /* \"--CODEGEN--\":13:15   */\n      0x40\n        /* \"--CODEGEN--\":8:11   */\n      dup2\n        /* \"--CODEGEN--\":5:16   */\n      lt\n        /* \"--CODEGEN--\":2:4   */\n      iszero\n      tag_9\n      jumpi\n        /* \"--CODEGEN--\":29:30   */\n      0x0\n        /* \"--CODEGEN--\":26:27   */\n      dup1\n        /* \"--CODEGEN--\":19:31   */\n      revert\n        /* \"--CODEGEN--\":2:4   */\n    tag_9:\n        /* \"MyContract.sol\":300:450  function calculate(uint _value1, uint _value2) public {... */\n      dup2\n      add\n      swap1\n      dup1\n      dup1\n      calldataload\n      swap1\n      0x20\n      add\n      swap1\n      swap3\n      swap2\n      swap1\n      dup1\n      calldataload\n      swap1\n      0x20\n      add\n      swap1\n      swap3\n      swap2\n      swap1\n      pop\n      pop\n      pop\n      tag_10\n      jump\t// in\n    tag_8:\n      stop\n        /* \"MyContract.sol\":273:293  uint256 public value */\n    tag_6:\n      sload(0x0)\n      dup2\n      jump\t// out\n        /* \"MyContract.sol\":300:450  function calculate(uint _value1, uint _value2) public {... */\n    tag_10:\n        /* \"MyContract.sol\":378:407  Math.divide(_value1, _value2) */\n      tag_12\n        /* \"MyContract.sol\":390:397  _value1 */\n      dup3\n        /* \"MyContract.sol\":399:406  _value2 */\n      dup3\n        /* \"MyContract.sol\":378:389  Math.divide */\n      tag_13\n        /* \"MyContract.sol\":378:407  Math.divide(_value1, _value2) */\n      jump\t// in\n    tag_12:\n      pop\n        /* \"MyContract.sol\":435:442  _value2 */\n      dup1\n        /* \"MyContract.sol\":425:432  _value1 */\n      dup3\n        /* \"MyContract.sol\":425:442  _value1 / _value2 */\n      dup2\n      iszero\n      iszero\n      tag_14\n      jumpi\n      invalid\n    tag_14:\n      div\n        /* \"MyContract.sol\":417:422  value */\n      0x0\n        /* \"MyContract.sol\":417:442  value = _value1 / _value2 */\n      dup2\n      swap1\n      sstore\n      pop\n        /* \"MyContract.sol\":300:450  function calculate(uint _value1, uint _value2) public {... */\n      pop\n      pop\n      jump\t// out\n        /* \"MyContract.sol\":42:198  function divide(uint256 a, uint256 b) internal pure returns (uint256) {... */\n    tag_13:\n        /* \"MyContract.sol\":103:110  uint256 */\n      0x0\n        /* \"MyContract.sol\":147:148  0 */\n      dup1\n        /* \"MyContract.sol\":145:146  b */\n      dup3\n        /* \"MyContract.sol\":145:148  b>0 */\n      gt\n        /* \"MyContract.sol\":136:149  require (b>0) */\n      iszero\n      iszero\n      tag_16\n      jumpi\n      0x0\n      dup1\n      revert\n    tag_16:\n        /* \"MyContract.sol\":159:165  uint c */\n      0x0\n        /* \"MyContract.sol\":172:173  b */\n      dup3\n        /* \"MyContract.sol\":168:169  a */\n      dup5\n        /* \"MyContract.sol\":168:173  a / b */\n      dup2\n      iszero\n      iszero\n      tag_17\n      jumpi\n      invalid\n    tag_17:\n      div\n        /* \"MyContract.sol\":159:173  uint c = a / b */\n      swap1\n      pop\n        /* \"MyContract.sol\":190:191  c */\n      dup1\n        /* \"MyContract.sol\":183:191  return c */\n      swap2\n      pop\n      pop\n        /* \"MyContract.sol\":42:198  function divide(uint256 a, uint256 b) internal pure returns (uint256) {... */\n      swap3\n      swap2\n      pop\n      pop\n      jump\t// out\n\n    auxdata: 0xa165627a7a72305820825c1038c3b8b30d2fe5e8d850e3824c67b617aeb21e0057777ff77a3dd5bdf90029\n}\n",
				"bytecode": {
					"linkReferences": {},
					"object": "608060405234801561001057600080fd5b50610129806100206000396000f3fe6080604052600436106043576000357c0100000000000000000000000000000000000000000000000000000000900480633fa4f2451460485780638dfa4363146070575b600080fd5b348015605357600080fd5b50605a60b1565b6040518082815260200191505060405180910390f35b348015607b57600080fd5b5060af60048036036040811015609057600080fd5b81019080803590602001909291908035906020019092919050505060b7565b005b60005481565b60bf828260d5565b50808281151560ca57fe5b046000819055505050565b6000808211151560e457600080fd5b6000828481151560f057fe5b049050809150509291505056fea165627a7a72305820825c1038c3b8b30d2fe5e8d850e3824c67b617aeb21e0057777ff77a3dd5bdf90029",
					"opcodes": "PUSH1 0x80 PUSH1 0x40 MSTORE CALLVALUE DUP1 ISZERO PUSH2 0x10 JUMPI PUSH1 0x0 DUP1 REVERT JUMPDEST POP PUSH2 0x129 DUP1 PUSH2 0x20 PUSH1 0x0 CODECOPY PUSH1 0x0 RETURN INVALID PUSH1 0x80 PUSH1 0x40 MSTORE PUSH1 0x4 CALLDATASIZE LT PUSH1 0x43 JUMPI PUSH1 0x0 CALLDATALOAD PUSH29 0x100000000000000000000000000000000000000000000000000000000 SWAP1 DIV DUP1 PUSH4 0x3FA4F245 EQ PUSH1 0x48 JUMPI DUP1 PUSH4 0x8DFA4363 EQ PUSH1 0x70 JUMPI JUMPDEST PUSH1 0x0 DUP1 REVERT JUMPDEST CALLVALUE DUP1 ISZERO PUSH1 0x53 JUMPI PUSH1 0x0 DUP1 REVERT JUMPDEST POP PUSH1 0x5A PUSH1 0xB1 JUMP JUMPDEST PUSH1 0x40 MLOAD DUP1 DUP3 DUP2 MSTORE PUSH1 0x20 ADD SWAP2 POP POP PUSH1 0x40 MLOAD DUP1 SWAP2 SUB SWAP1 RETURN JUMPDEST CALLVALUE DUP1 ISZERO PUSH1 0x7B JUMPI PUSH1 0x0 DUP1 REVERT JUMPDEST POP PUSH1 0xAF PUSH1 0x4 DUP1 CALLDATASIZE SUB PUSH1 0x40 DUP2 LT ISZERO PUSH1 0x90 JUMPI PUSH1 0x0 DUP1 REVERT JUMPDEST DUP2 ADD SWAP1 DUP1 DUP1 CALLDATALOAD SWAP1 PUSH1 0x20 ADD SWAP1 SWAP3 SWAP2 SWAP1 DUP1 CALLDATALOAD SWAP1 PUSH1 0x20 ADD SWAP1 SWAP3 SWAP2 SWAP1 POP POP POP PUSH1 0xB7 JUMP JUMPDEST STOP JUMPDEST PUSH1 0x0 SLOAD DUP2 JUMP JUMPDEST PUSH1 0xBF DUP3 DUP3 PUSH1 0xD5 JUMP JUMPDEST POP DUP1 DUP3 DUP2 ISZERO ISZERO PUSH1 0xCA JUMPI INVALID JUMPDEST DIV PUSH1 0x0 DUP2 SWAP1 SSTORE POP POP POP JUMP JUMPDEST PUSH1 0x0 DUP1 DUP3 GT ISZERO ISZERO PUSH1 0xE4 JUMPI PUSH1 0x0 DUP1 REVERT JUMPDEST PUSH1 0x0 DUP3 DUP5 DUP2 ISZERO ISZERO PUSH1 0xF0 JUMPI INVALID JUMPDEST DIV SWAP1 POP DUP1 SWAP2 POP POP SWAP3 SWAP2 POP POP JUMP INVALID LOG1 PUSH6 0x627A7A723058 KECCAK256 DUP3 0x5c LT CODESIZE 0xc3 0xb8 0xb3 0xd 0x2f 0xe5 0xe8 0xd8 POP 0xe3 DUP3 0x4c PUSH8 0xB617AEB21E005777 PUSH32 0xF77A3DD5BDF90029000000000000000000000000000000000000000000000000 "
				},
				"gasEstimates": {
					"creation": {
						"codeDepositCost": "59400",
						"executionCost": "111",
						"totalCost": "59511"
					},
					"external": {
						"calculate(uint256,uint256)": "20433",
						"value()": "388"
					}
				},
				"methodIdentifiers": {
					"calculate(uint256,uint256)": "8dfa4363",
					"value()": "3fa4f245"
				}
			},
			"userdoc": {
				"methods": {}
			}
		}
	}
}